:020000040800F2
:1000000030050020450100081B0D000825090008E7
:10001000190D000829060008A71C000800000000B0
:10002000000000000000000000000000A91200080D
:10003000A707000800000000450E0008C5130008CF
:100040005F0100085F0100085F0100085F01000810
:100050005F0100085F010008A90700085F010008B0
:10006000AD0700085F010008AF0700085F01000846
:100070005F0100085F0100085F0100085F010008E0
:100080005F0100085F0100085F0100085F010008D0
:100090005F0100085F0100085F010008B107000868
:1000A0005F0100085F0100085F0100085F010008B0
:1000B000911400085F0100085F0100085F0100085B
:1000C0005F0100085F0100085F0100085F01000890
:1000D0005F0100080D190008A51900088D1A000815
:1000E000AB0700085F0100085F0100085F0100081E
:1000F0005F0100085F0100085F0100085F01000860
:100100005F0100085F0100085F0100085F0100084F
:100110005F0100085F0100085F0100085F0100083F
:100120005F0100085F0100085F0100085F0100082F
:10013000DFF80CD000F05CF8004800477724000896
:10014000300500200648804706480047FEE7FEE7E6
:10015000FEE7FEE7FEE7FEE7FEE7FEE7FEE7FEE777
:10016000F51300083101000840EA01039B0703D0A2
:1001700009E008C9121F08C0042AFAD203E011F8E6
:10018000013B00F8013B521EF9D270472DE9F05FA8
:100190000546002092469B468846064681464024F6
:1001A0001BE0284641464746224600F042F85346A7
:1001B0005A46C01A914110D311461846224600F003
:1001C00029F82D1A67EB01084F462246012000212D
:1001D00000F020F817EB00094E41201EA4F10104A5
:1001E000DFDC484631462A464346BDE8F09F000022
:1001F000064C074D06E0E06840F0010394E8070074
:1002000098471034AC42F6D3FFF796FFA82D0008AC
:10021000C82D0008202A04DB203A00FA02F1002051
:1002200070479140C2F1200320FA03F31943904034
:100230007047202A04DB203A21FA02F0002170479F
:1002400021FA02F3D040C2F120029140084319463E
:100250007047000008B50121084600F0FFFD0121AC
:100260004FF4047000F01EFE0320ADF800000020E3
:100270008DF803006946034800F0B2FABDE8084073
:1002800000F002B80010014030B5314D91B0284661
:1002900000F0FAF92F4800902F480024CDE901041E
:1002A0006420CDE903048020059040000690800082
:1002B0000790202008900002CDE9090469462846ED
:1002C00000F054FA0121284600F0D2F901208DF8FF
:1002D00030008DF831000B944FF46020CDE90D040F
:1002E0001C4C02208DF83C004C3C0BA9204600F031
:1002F00057F84FF4404000F0A7FD072301220A21E0
:10030000204600F071F8072302220B21204600F05E
:100310006BF80121204600F02BF80121204600F067
:100320001DF8204600F09AF8204600F032F8002828
:10033000FAD1204600F0BCF8204600F023F800284F
:10034000FAD10121204600F0A9F811B030BD00001B
:10035000080002404C24014064000020002981680C
:1003600002D041F0010101E021F0010181607047FC
:100370000029816802D041F4807101E021F480718C
:1003800081607047014600208968490700D5012037
:100390007047014600208968090700D50120704791
:1003A00010B542680E4B0C791A400B6842EA0422E1
:1003B0001343436083680B4A1340D1E9024222434E
:1003C0004C7943EA44031A438260C26A097C22F4EE
:1003D0007002491EC9B242EA0151C16210BD00005B
:1003E000FFFEF0FFFDF7F1FF70B5072409290AD9D8
:1003F000C568A1F10A0606EB4606B440A543B34022
:100400001D43C56007E0056901EB4106B440A54303
:10041000B3401D4305611F23072A09D2446B521EB6
:1004200002EB820293409C4391400C43446370BDB5
:100430000D2A09D2046BD21F02EB820293409C4327
:1004400091400C43046370BDC46A0D3A02EB820212
:1004500093409C4391400C43C46270BD816841F05D
:10046000080181607047000070B50B4C0025E078F2
:1004700020B1012802D0022808D0E570E078401CA5
:10048000C0B2E070032800D3E57070BD0B2000F00F
:1004900031FAE080F2E700001C00002000298168AA
:1004A00002D041F4A00101E021F4A0018160704775
:1004B000816841F0040181607047000038B5012176
:1004C000102000F0EFFC4FF40074ADF80040032062
:1004D0008DF802001020064D8DF80300694628466D
:1004E00000F07EF92146284600F001FA38BD0000F0
:1004F00000100140F8B50121182000F0D3FC0820BD
:10050000ADF800001824174E8DF8034003258DF830
:1005100002506946304600F063F94FF40040ADF8F0
:10052000000048208DF8030069460F4800F058F994
:100530000220ADF800008DF803400C4C8DF80250FD
:100540006946204600F04CF90221204600F0CFF920
:100550000821304600F0CBF90221204600F0C5F911
:10056000F8BD000000100140000C014000080140EF
:1005700008B500F0AFFC482000F026FF01F0B4FC05
:1005800000F0AEFBFFF79AFF01F031F801F078FBC5
:100590000121082000F086FCC020ADF800000320F7
:1005A0008DF802001020174C8DF803006946204694
:1005B00000F016F9C021204600F099F900F00AFE7B
:1005C000FFF748FE00F038F800F0AEF900F056FAF8
:1005D0000DA20321052000F0FDFA0FA2072119202A
:1005E00000F0CAFA4FF47A74204601F0EBFE00F0F6
:1005F0000BFA204601F0E6FE01F0A4FBFFF77AFFBC
:10060000FEE70000000C014074656D706572747542
:1006100072653A32350000004F574C2D494F543324
:100620003220563200000000FEE70000014840681A
:1006300000F071BE5000002038B50121042000F008
:1006400031FC4FF48074ADF8004010208DF80300A9
:100650000320064D8DF802006946284600F0C0F8D8
:100660002146284600F043F938BD0000000801404B
:100670000029016802D041F0010102E04FF6FE724C
:10068000114001607047000001684FF6FE72114092
:1006900001600021016041608160C1603149314ADF
:1006A0000839904203D1486840F00F0006E02D4A17
:1006B0001432904204D1486840F0F000486070471E
:1006C000284A2832904203D1486840F47060F5E728
:1006D000244A3C32904203D1486840F47040EDE730
:1006E000204A5032904203D1486840F47020E5E738
:1006F0001C4A6432904203D1486840F47000DDE740
:10070000184A7832904203D1486840F07060D5E7CB
:10071000154A111F904203D1086840F00F0006E00F
:10072000114A1432904204D1086840F0F000086089
:1007300070470D4A2832904203D1086840F4706037
:10074000F5E7094A3C32904203D1086840F4704012
:10075000EDE7054A50329042EAD1086840F4702033
:10076000E5E70000080002400804024030B50368D5
:1007700047F6F07293430C6A8A682243D1E9044534
:100780002C4322438C692243CC6922434C6A224386
:100790008C6A22431A430260CA6842600A68826017
:1007A0004968C16030BD70477047704770477047F7
:1007B0007047000004490A6822F010020A600A68C3
:1007C00002430A607047000000200240034A11689B
:1007D00001F0380101431160704700000020024021
:1007E000F0B5CA78002502F00F03D20601D58A7849
:1007F00013430A784FF00F0E12F0FF0F4FF0010273
:100800001CD004680F8802FA05F63740B74211D1B0
:100810004FEA850C0EFA0CF724EA070703FA0CF4EA
:100820003C43CF78282F02D0482F02D002E0466107
:1008300000E006616D1C082DE4D304600C88FF2CD9
:100840001ED944685FF0000606F1080702FA07F5B2
:100850000F882F40AF420FD14FEA860C0EFA0CF7EB
:10086000BC4303FA0CF73C43CF78282F00D14561F5
:10087000CF78482F00D10561761C082EE4D3446060
:10088000F0BD0000F0B5144C002801DAE36900E087
:100890006368420D120185B2C0F301579540C0F361
:1008A0000346032F05D0C2020AD50322B240934368
:1008B00007E023F07062636823F07063636002E016
:1008C000AB4343F0706201B12A43002801DAE261D0
:1008D000F0BD6260F0BD0000000001400246002053
:1008E00092680A4200D0012070474161704701615F
:1008F0007047000010B500240A2804D00B2801D04E
:10090000002010BD0124204601F084FD014830F88C
:10091000140010BD1800002001210148FFF7DEBFC0
:1009200000080140FEE7000008B50121042000F0A6
:10093000B9FA0120ADF8000048208DF8030069469F
:100940000148FFF74DFF08BD000801402DE9F041C7
:100950002C4CFF25E08801F021FD00270646FF28EA
:1009600001D0012005E001F07FFD0646FF2805D0FB
:100970000220207061788E4208D109E02079C828D1
:1009800001D3032502E0232800D30025277109E0C5
:100990002079401CC0B22071232803D0C8280CD075
:1009A000FA280CD06178FF2928D0FF2D26D0207896
:1009B00001280AD002280DD014E0012502E002250A
:1009C000C8202071FF29F2D118E00E4905EB8500FF
:1009D0001E3103E00B4905EB4500123108446178F4
:1009E000405CA070A078FF2808D0182801D1FFF73C
:1009F0001DFEA07801F042FDFF20A0706670BDE8EA
:100A0000F08100001C00002070B5002404F1B0004B
:100A1000C0B200F049F9012000F046F9102000F0C2
:100A200043F90025002000F04DF96D1CEDB2802D3A
:100A3000F8D3641CE4B2082CE8D370BD80B201F096
:100A4000C1BC000070B506465FF0000404F1B000C0
:100A5000C0B200F029F9012000F026F9102000F0C2
:100A600023F90025304600F02DF96D1CEDB2802DE4
:100A7000F8D3641CE4B2082CE8D370BD10B535A0DF
:100A800001F03AFA00F086F900F0E4F8AE2000F048
:100A90000BF9002000F008F9102000F005F94020C3
:100AA00000F002F9812000F0FFF8CF2000F0FCF800
:100AB000A12000F0F9F8C82000F0F6F8A62000F018
:100AC000F3F8A82000F0F0F83F2000F0EDF8D32074
:100AD00000F0EAF8002000F0E7F8D52000F0E4F894
:100AE000802000F0E1F8D92000F0DEF8F12000F0DD
:100AF000DBF8DA2000F0D8F8122000F0D5F8DB207F
:100B000000F0D2F8402000F0CFF8202000F0CCF820
:100B1000022000F0C9F88D2000F0C6F8142000F083
:100B2000C3F8A42000F0C0F8A62000F0BDF8AF2064
:100B300000F0BAF8AF2000F0B7F80020FFF782FF0E
:100B40000021084600F09EF8BDE8104005A001F025
:100B5000D3B900004C43445F496E697428290D0ADB
:100B6000000000004C43445F496E697428292B2B18
:100B7000656E640D0A0000002DE9F04790468A4634
:100B800005460026DFF848901CE02038C7B27E2DCD
:100B900004D90AF10100002500F0FF0A5146284659
:100BA00000F070F807EB4700002409EB4007385DC0
:100BB00000F088F8641CE4B2062CF8D3AD1D761C56
:100BC000EDB2F6B218F806000028DED1BDE8F087D5
:100BD000042500082DE9F047924689468046002505
:100BE0001B4E2FE02038C7B2B8F1780F05D909F1B4
:100BF00001004FF0000800F0FF094946404600F0B0
:100C000041F8002404EB0710305C00F05BF8641C32
:100C1000E4B2082CF6D309F10100C1B2404600F05D
:100C200031F8002404EB07103044007A00F04AF851
:100C3000641CE4B2082CF5D308F108006D1C00F028
:100C4000FF08EDB21AF805000028CBD1BDE8F08707
:100C50002C27000810B50A4C01212046FFF747FE5B
:100C60006420FFF7EBFE01212046FFF73EFE6420E3
:100C7000FFF7E4FE2046BDE810400121FFF737BE34
:100C8000000C014010B50446B031C8B200F00CF8B9
:100C9000102040EA141000F007F804F00F00BDE83F
:100CA000104000F001B8000010B5044602210448CD
:100CB000FFF71BFE2046BDE8104000F09BB8000087
:100CC000000C014010B5044602210448FFF70FFE56
:100CD0002046BDE8104000F08DB80000000C014037
:100CE00008B50121112000F0DDF801210848FFF7C7
:100CF000C9FD4FF4E070ADF8000018208DF8030036
:100D000003208DF8020069460248FFF769FD08BD1F
:100D1000000C1A0000100140FEE7704770B50F2369
:100D2000C47801780122F4B1144C2468457804F4A5
:100D3000E064C4F5E064240AC4F10406E340847866
:100D4000B5401C402C4301F1E021230181F800341F
:100D5000007800F01F018A404009800000F1E02087
:100D6000C0F8002170BD01F01F00824048098000DA
:100D700000F1E020C0F8802170BD00000CED00E023
:100D80000249084302490860704700000000FA0564
:100D90000CED00E038B50121082000F083F80320B5
:100DA000ADF800008DF802001020064C8DF803000D
:100DB00069462046FFF714FD01212046FFF797FD05
:100DC00038BD0000000C014008B50121102000F0E2
:100DD00069F83020ADF8000003208DF802001020E3
:100DE0008DF8030069460248FFF7FAFC08BD0000D1
:100DF0000010014070B5124E054600241021304607
:100E0000FFF773FD0A2001F0F1FA28064FF02001E8
:100E1000304602D5FFF76BFD01E0FFF766FD0A20C3
:100E200001F0E4FA10213046FFF761FD0A2001F0DD
:100E3000DDFA6806641C050EE4B2082CDED370BD32
:100E40000010014070470000034A516821F44041FE
:100E5000014351607047000000100240044A00291D
:100E6000516901D0014300E08143516170470000A6
:100E700000100240044A0029D16901D0014300E07A
:100E80008143D1617047000000100240044A0029EC
:100E9000116901D0014300E08143116170470000F6
:100EA00000100240044A0029916901D0014300E08A
:100EB000814391617047000000100240044A0029FC
:100EC000D16801D0014300E08143D1607047000048
:100ED0000010024010B500F02FF84FF48034204687
:100EE00000F0BCF800F002F9012823D11020FFF730
:100EF00061FC0220FFF76AFC002000F0A5F800204A
:100F000000F0D0F8A01100F0C3F84FF4E011204633
:100F100000F0D8F8012000F0CFF8392000F074F884
:100F20000028FAD0022000F0D7F800BF00F084F8C3
:100F30000828FBD110BD00000C48016841F00101F8
:100F4000016041680A4A114041600168094A114044
:100F50000160016821F480210160416821F4FE01F3
:100F600041604FF41F018160704700000010024093
:100F70000000FFF8FFFFF6FE30B51F494A6812F087
:100F80000C031E4A03D0042B01D0082B21D0026091
:100F90004A680F231A4C03EA1212A35C0268DA4073
:100FA00042604B68072505EA1323E35C22FA03F34A
:100FB00083604B6805EAD323E35CDA40C26049688A
:100FC000032303EA9131231F595CB2FBF1F1016164
:100FD00030BD4A684B6802F470124FF0020413F4FB
:100FE000803F04EB924202D04B689B0301D5054B36
:100FF00000E0024B5A43CAE70010024000127A0098
:101000000400002000093D00024600205309094960
:10101000012B0BD0022B0BD0D1F8241002F01F02B1
:10102000012393400B4200D0012070470968F5E787
:10103000096AF3E7001002400248406800F00C0023
:101040007047000000100240034A516821F0F0018F
:101050000143516070470000001002400B490A68CC
:1010600022F480320A600A6822F480220A60B0F515
:10107000803F07D0B0F5802F03D1086840F4A0204E
:1010800008607047086840F48030F9E700100240BB
:10109000034A516821F4E061014351607047000048
:1010A0000010024003494A6822F4605242EAC0003C
:1010B0004860704700100240014908667047000010
:1010C00000004242034A5368084323F47C13184348
:1010D0005060704700100240034A516821F003013C
:1010E00001435160704700000010024018B5002015
:1010F0004FF4A06400903120FFF786FF0099491C4F
:101100000091A14201D00028F5D03120FFF77CFFEB
:10111000002800D0012018BDF8B501211C20FFF7E0
:10112000C1FE4FF4C050ADF800000324134E8DF8FB
:10113000024010258DF8035069463046FFF750FBFA
:101140002801ADF800008DF802408DF80350694683
:101150000B48FFF745FB0420ADF8000028208DF870
:10116000030069460748FFF73BFBE9013046FFF7FC
:10117000BEFB29023046FFF7BAFBF8BD000801406C
:10118000000C0140001001400029018802D041F00C
:10119000400101E021F040010180704730B5028834
:1011A0004C8802F441530A88CD8822438C882C4312
:1011B00022430C8922434C8922438C892243CC89C7
:1011C00022431A430280828B22F400628283098ABE
:1011D000018230BD10B500F013F8FFF7F5FDBDE852
:1011E0001040FFF799BFA1F57E420188FF3A02D077
:1011F00041F4807101E021F48071018070470000AA
:1012000010B586B001210520FFF74CFE012108032F
:10121000FFF748FEB020ADF8140003208DF816004B
:1012200018201F4C8DF8170005A92046FFF7D8FAA3
:101230004020ADF8140004208DF8170005A92046C1
:10124000FFF7CEFA10212046FFF751FB0020ADF842
:1012500000004FF48271ADF80210ADF804000221D5
:10126000ADF806100121ADF808104902ADF80A10DA
:101270000821ADF80C10ADF80E000720094CADF8B0
:10128000100069462046FFF789FFA1152046FFF7A9
:10129000AAFF01212046FFF777FF06B010BD00002E
:1012A00000080140003001407047002809D00021AB
:1012B000FF22416002E083685A54491C03688B4254
:1012C000F9DC704770B528B1446806680123651CD5
:1012D000B54201DD00230AE0002AFBDB82681155DC
:1012E0004168491C416002688A4200DA426018463F
:1012F00070BD4FF0FF3100B141680846704770B5CE
:101300000C460546FFF7F5FF024621462846BDE894
:101310007040FFF7D7BFFFF7C8BF00000CB5002132
:10132000264801910091026842F4803202604FF435
:10133000A063026802F400320092019A521C0192EA
:10134000009A12B9019A9A42F3D10268920333D5F6
:10135000012100911A490A6842F010020A600A68E5
:1013600022F003020A600A6842F002020A60416841
:10137000416041684160416841F480614160416879
:1013800021F47C114160416841F4E8114160016839
:1013900041F08071016001688901FCD5416821F04C
:1013A00003014160416841F0020141604168C1F3BD
:1013B00081010229FAD10CBD00910CBD0010024040
:1013C00000200240704700004FF0E0210A6922F03F
:1013D00004020A610649C00800EB40020870C2EB33
:1013E000C0104FF6FF7202EAC0004880704700004C
:1013F000140000200F4810B5016841F001010160A0
:1014000041680D4A1140416001680C4A1140016079
:10141000016821F480210160416821F4FE014160EE
:101420004FF41F018160FFF779FF05494FF000601D
:10143000086010BD001002400000FFF8FFFFF6FE3C
:1014400008ED00E03EB501210846FFF713FD13202B
:10145000ADF8040041F61F40ADF800000020ADF8E3
:101460000600ADF802004FF080446946204600F0C7
:101470009BF90121204600F09BF8012211462046ED
:1014800000F0ADF80121204600F098F83EBD0000C4
:1014900010B501218C07204600F09AF8012816D1DA
:1014A000FEF7E2FFFFF752FA094A5168491C64202F
:1014B000516091FBF0F200FB121010B90B2000F00C
:1014C000DDFF2046BDE81040012100F074B810BDDA
:1014D0005800002008B54FF4A060FFF751FC1C2015
:1014E0008DF8000001208DF8010003218DF8021015
:1014F0008DF803006846FFF711FC08BD30B587B0D2
:1015000001210220FFF7B6FCFF20ADF8140040F2E5
:10151000CF70ADF8100000241F4DADF81640ADF8A7
:10152000124004A9284600F03FF96020ADF8000001
:101530000120ADF802000220ADF80800ADF8064029
:101540006946284600F05CF80821284600F098F823
:101550006946284600F09AF80821284600F0D6F897
:101560006946284600F0DCF80821284600F016F904
:101570000121284600F012F80121284600F01EF84B
:10158000054834300480001D0480001D0480001DC7
:10159000048007B030BD000000040040002901882D
:1015A00002D041F0800101E021F08001018070470C
:1015B000C94301827047C9430182704700290188ED
:1015C00002D041F0010101E021F0010101807047EA
:1015D00002460020128A0A4200D001207047002AE9
:1015E000828901D00A4300E08A438281704710B5A6
:1015F000FFF728FFFFF76EFFBDE81040FFF77EBF43
:1016000030B5028C22F001020284028C8388048BA4
:1016100022F0020224F073050C882C430D89154337
:101620004A882A43114DA8420BD0114DA84208D038
:10163000104DA84205D0104DA84202D00F4DA8422F
:101640000DD122F008054A8923F440732A4322F081
:1016500004058A882A438D891D43CB892B438380C7
:101660000483C9888186028430BD0000002C0140BB
:101670000034014000400140004401400048014066
:10168000028B22F008020A430283704770B5028C75
:1016900022F010020284028C8488038B0D8823F4CC
:1016A000E6464FF6FF7303EA052535430E8922F01F
:1016B000200203EA061616434A8803EA021232435E
:1016C000104EB04202D0104EB04215D122F080062A
:1016D0004A8924F4406403EA0212324322F04006AD
:1016E0008A8803EA021232438E8903EA8606264379
:1016F000CC8903EA8404344384800583C988018744
:10170000028470BD002C014000340140028B4FF672
:10171000FF7322F4006203EA012111430183704741
:1017200070B5028C22F480720284028C8488838BD0
:101730000D8823F073031D4322F400730E894FF6C6
:10174000FF7202EA06261E434B8802EA0323334354
:10175000104EB04202D0104EB04215D123F40066B4
:101760004B8924F4405402EA0323334323F4806674
:101770008B8802EA032333438E8902EA0616264346
:10178000CC8902EA0414344384808583C988818724
:10179000038470BD002C014000340140828B22F094
:1017A00008020A438283704730B502881B4B1C4CE9
:1017B00098420DD0A0420BD0B0F1804F08D0194D07
:1017C000A84205D0184DA84202D0184DA84203D116
:1017D00022F070054A882A43154DA84206D0154DBF
:1017E000A84203D022F44075CA882A4302808A881E
:1017F00082850A88028598420AD0A04208D00E4A03
:10180000904205D00D4A904202D00D4A904201D13B
:10181000097A01860121818230BD0000002C01403F
:10182000003401400004004000080040000C00406B
:1018300000100040001400400040014000440140FE
:101840000048014038B54FF4A060FFF799FA262010
:101850008DF8000000248DF801408DF8024001252C
:101860008DF803506846FFF759FA27208DF80000DD
:101870008DF801408DF802508DF803506846FFF74F
:101880004DFA38BD30B51F4C85B0204600F02AF91E
:10189000012144F20400FFF705FB6015ADF81000CC
:1018A00018208DF813000320174D8DF8120004A99D
:1018B0002846FEF795FF2015ADF8100004208DF89E
:1018C000130004A92846FEF78BFF00214FF4E130F6
:1018D0000090ADF80810ADF804100C20ADF806101B
:1018E000ADF80C10ADF80A006946204600F072F918
:1018F000208820F0400020800121204600F0E8F8F8
:1019000005B030BD003801400008014070470000BC
:1019100030B585B001210420FFF7C4FA0121480445
:10192000FFF7A8FA0424ADF8104018208DF8130032
:1019300003201A4D8DF8120004A92846FEF750FF27
:101940000820ADF810008DF8134004A92846FEF7D2
:1019500047FF4FF4164000900020ADF80400ADF8AA
:101960000600ADF80800ADF80C000C200C4CADF8EA
:101970000A006946204600F02DF9012240F2255167
:10198000204600F00FF9208820F04000208001213F
:10199000204600F09DF805B030BD00000008014071
:1019A0000044004070B5104C0821204600F0D4F8E7
:1019B00010B1204600F06FF940F225552946204627
:1019C00000F0D1F800280DD02946204600F07AF822
:1019D0000548001D00880549C0B20870BDE8704088
:1019E00000F06CBD70BD00000044004058000020B5
:1019F00010B586B001210820FFF754FA01218804B0
:101A0000FFF738FA4FF48840ADF8100018208DF831
:101A1000130003201B4C8DF8120004A92046FEF78A
:101A2000DFFEE014ADF8100004208DF8130004A9C7
:101A30002046FEF7D5FE4FF4E13000900020ADF8CF
:101A40000400ADF80600ADF808004FF44070ADF8A2
:101A50000C000C200C4CADF80A006946204600F042
:101A6000B9F8012240F22551204600F09BF8208869
:101A700020F0400020800121204600F029F806B027
:101A800010BD0000000C01400048004070B50C4C37
:101A90000821204600F060F810B1204600F0FBF865
:101AA00040F225552946204600F05DF8002805D073
:101AB00029462046BDE8704000F004B870BD000023
:101AC000004800400A0A01219140C9430180704743
:101AD0000029818902D041F4005101E021F4005134
:101AE00081817047174910B588420AD101218C03C2
:101AF0002046FFF7E3F92046BDE810400021FFF73C
:101B0000DDB91149884202D101214C0410E00F498E
:101B1000884202D101218C040AE00D49884202D199
:101B20000121CC0404E00B4988420AD101210C05B3
:101B30002046FFF7ABF92046BDE810400021FFF733
:101B4000A5B910BD003801400044004000480040E5
:101B5000004C0040005000400246002012880A421B
:101B600000D00120704730B501F01F02012400258C
:101B7000C1F3421304FA02F2012B0FD0022B0FD053
:101B8000838A4FEA11210088134204FA01F400EA23
:101B9000040001D000B10125284630BD8389F0E75B
:101BA000038AEEE710B5C1F3421301F01F040121CF
:101BB000A140012B07D0022B07D01430002A026865
:101BC00005D00A4304E00C30F8E71030F6E78A430A
:101BD000026010BD30B50446008A85B00D464CF653
:101BE000FF710840E98801432182A1894EF6F31074
:101BF0000140A8882A8910436A890A431043A081BA
:101C0000A08A4FF6FF410840A9890143A182684696
:101C1000FFF7B2F91948844201D1039800E0029815
:101C2000A189090400EBC00101EB0010296801D56E
:101C3000490000E08900B0FBF1F06422B0FBF2F152
:101C400009010B096FF018056B4300EB8300A389B2
:101C50001D044FF0320306D503EBC000B0FBF2F0D9
:101C600000F0070005E003EB0010B0FBF2F000F01D
:101C70000F000843208105B030BD0000003801404E
:101C800010B5FFF7DFFDFFF7FDFDFFF741FEBDE8F3
:101C90001040FFF7ADBE8088C0F308007047C1F365
:101CA000080181807047FEE770B50446002503E017
:101CB00000F016FC641C6D1C20780028F8D1284622
:101CC00070BD000001A000F0BFB8000041545044B6
:101CD0003D300D0A0000000030B58DB00D460446C1
:101CE00034220C496846FEF73FFA2146684600F068
:101CF000CDFB09A1684600F0C9FB2946684600F003
:101D0000C5FB06A1684600F0C1FB684600F09CF8E0
:101D10000DB030BD402D00082C0000000D0A000061
:101D20004FF400710148FEF7E2BD0000000C0140D5
:101D300001A000F089B80000415450553D310D0A12
:101D40000000000010B521A000F0D6F8FFF7BAFFA0
:101D50004FF47A74204600F035FB22A124A0FFF74F
:101D6000BBFF204600F02EFB204600F02BFB204658
:101D700000F028FB204600F025FB204600F022FB67
:101D8000204600F01FFB204600F01CFB204600F020
:101D900019FB204600F016FB18A000F085F820463D
:101DA00000F010FB204600F00DFB204600F00AFB7F
:101DB000FFF7BEFF204600F005FB204600F002FBC7
:101DC0002046BDE8104000F0FDBA000057494649E2
:101DD0005F52544C383731305F496E69742829217D
:101DE000210D0A0077727731313233353800000027
:101DF00054502D4C494E4B5F646671003139322E80
:101E00003136382E312E3130382C363030303000EB
:101E100038B501210820FFF745F84FF40074ADF8FC
:101E2000004010208DF803000320064D8DF80200BD
:101E300069462846FEF7D4FC21462846FEF755FDA4
:101E400038BD0000000C014070B5054600F02BFBCA
:101E500004462846FFF728FF84420BD1642000F097
:101E6000B1FA294606A000F047F8BDE87040052009
:101E700000F0A8BABDE8704006A000F03DB8000030
:101E80000D0A41542053656E64203A2025730D0AD3
:101E9000000000000D0A41542053656E64206669FD
:101EA0006C640D0A0000000010B58AB004462422BC
:101EB0000A496846FEF758F92146684600F0E6FAF6
:101EC00007A1684600F0E2FA6846FFF7BDFF64200C
:101ED00000F078FA034800780AB010BD1C2D000805
:101EE0000D0A00004E00002010B5FFF791FFBDE87D
:101EF0001040FFF715BF00000FB4054B10B503A944
:101F0000044A029800F018F810BC5DF814FB0000B9
:101F1000452400086000002002E008C8121F08C124
:101F2000002AFAD170477047002001E001C1121F5A
:101F3000002AFBD1704700002DE9FF4F8DB00F46FE
:101F40000546002606E025280BD0DDE90F12904754
:101F50006D1C761C28780028F5D111B03046BDE8FC
:101F6000F08F0024A246A1460122EC4900E0044380
:101F700015F8013F203B02FA03F00842F7D1287818
:101F80002A2810D06FF02F022878A0F130010929FB
:101F900014D80AEB8A0102EB410144F0020400EB81
:101FA000010A6D1CF0E701CF5FEA000A03D544F493
:101FB0000054CAF1000A44F002046D1C28782E284F
:101FC00017D115F8010F44F004042A280ED06FF041
:101FD0002F022878A0F1300109290AD809EB8901DC
:101FE00002EB410100EB01096D1CF2E757F8049B7D
:101FF0006D1C28786C280FD006DC4C2817D0682878
:102000000DD06A2814D104E0742810D07A280FD19A
:102010000DE044F400140AE044F4801401E044F4B8
:1020200040146978814202D104F580146D1C6D1C46
:102030002A786E2A1FD00CDC632A31D004DC002AF7
:102040008BD0582A11D1A3E0642A68D0692A0CD118
:1020500065E0732A2ED004DC6F2A73D0702A04D175
:102060009BE0752A6FD0782A6ED01046DDE90F12FA
:102070009047761C50E1C4F30250022806D0032892
:1020800009D0042801CF09D0066045E101CFF1173E
:10209000C0E9006140E101CF06803DE106703BE10F
:1020A00017F8040B8DF8000000208DF80100EB46B6
:1020B000012003E057F804BB4FF0FF3061074FF0F9
:1020C000000102D40DE008F10101884649450FDA0C
:1020D0008045F8DB1BF808100029F4D108E008F16E
:1020E000010188468142FADB1BF808100029F6D16D
:1020F000DDE90F23AAEB08008146214600F036F9FE
:10210000304400EB080604E0DDE90F121BF8010B78
:102110009047B8F10108F7D221464846F7E00A2176
:10212000C4F302534FF0000B0891022B04D001CFEF
:10213000C117032B09D00AE0FF1D27F00707F7E8B6
:10214000020108E032E01FE020E000B2C117042BDA
:1021500001D140B2C117031E71F1000307DA4FF03D
:10216000000CD0EB0C006CEB01012D2302E02305E9
:1021700004D52B238DF82430012303E0E30701D09D
:102180002023F7E7984658E00A2110E010210EE0DE
:1021900010204FF0000B08900CE010214FF0000BC6
:1021A00044F004044FF00809089103E008214FF0BF
:1021B000000B0891C4F30253022B04D001CF00217D
:1021C000032B06D006E0FF1D27F00707F7E8020102
:1021D00003E080B2042B00D1C0B24FF00008230707
:1021E0002BD5702A07D0DDF820C08CF0100C5CEAEB
:1021F0000B0C05D00EE040238DF82430012308E0BD
:1022000050EA010306D030238DF824308DF82520C4
:1022100002239846DDF820C08CF0080C5CEA0B0C19
:102220000BD150EA010301D1630706D530238DF8A5
:1022300024304FF00108A9F10109582A04D038A22E
:102240000B9208AA0A920BE03AA2F9E75B46089AB9
:10225000FDF79CFF0B9B9B5C0A9A521E0A9213701F
:1022600050EA0102F2D10A98ADEB000000F1200B18
:10227000600702D524F4803401E04FF00109D9450C
:1022800002DDA9EB0B0000E0002000EB0B01414454
:102290000890AAEB010AE00306D4DDE90F232146EA
:1022A000504600F063F806444FF0000908E009A921
:1022B00011F80900DDE90F12904709F10109761CB8
:1022C000C145F4DBE0030CD5DDE90F232146504680
:1022D00000F04CF8064404E0DDE90F12302090478E
:1022E000761C0899481E08900029F5DC08E00A9839
:1022F0000A990078491C0A91DDE90F129047761C73
:10230000BBF10001ABF1010BF1DC21465046DDE9E8
:102310000F2300F019F806446D1C1BE60928010084
:10232000303132333435363738396162636465664B
:10233000000000003031323334353637383941420D
:1023400043444546000000002DE9F04104460025C5
:102350001E461746880404D405E039462020B047BD
:102360006D1C641EF9D52846BDE8F0812DE9F041C9
:10237000044600251E469046C80301D5302700E0DC
:102380002027880404D505E041463846B0476D1C37
:10239000641EF9D52846BDE8F08100000146002002
:1023A000B1F5E16F01D9FF207047054A32F81030CE
:1023B0008B42F9D8401CC0B20428F7D37047000004
:1023C000240000200849498848434FF0E021486133
:1023D0000020886101220A610A69D30701D0D20373
:1023E000FAD508618861704714000020084909780F
:1023F00048434FF0E02148610020886101220A61D2
:102400000A69D30701D0D203FAD508618861704701
:102410001400002010B50022084B114603EB810484
:1024200034F81040491CC9B222443229F6D3322173
:1024300092FBF1F1024A22F8101010BD6400002056
:102440001800002070B5074D0446C1B22846FFF7BA
:1024500026FC40212846FFF77FFB0028F9D02046C4
:1024600070BD00000038014010B5FEF755FA002895
:1024700000D0FF2010BDFEF77BF8000001460248A7
:102480004068FEF73CBF000050000020B0F10102A0
:1024900012F8013F002BFBD111F8013B02F8013B80
:1024A000002BF9D17047002108B904E0491C10F84D
:1024B000012B002AFAD108467047000070B5074C7E
:1024C000054601462046FFF7EAFB80212046FFF73C
:1024D00043FB0128F9D1284670BD000000380140B7
:1024E00070B5074C054601462046FFF7D8FB802112
:1024F0002046FFF731FB0128F9D1284670BD0000C6
:10250000004400400000000000000000002F000018
:1025100000000700070000147F147F1400242A7FA6
:102520002A12006264081323003649552250000025
:102530000503000000001C224100000041221C0095
:102540000014083E08140008083E0808000000A017
:102550006000000808080808000060600000002013
:1025600010080402003E5149453E0000427F4000F1
:10257000004261514946002141454B310018141277
:102580007F10002745454539003C4A494930000144
:102590007109050300364949493600064949291E93
:1025A00000003636000000005636000000081422F5
:1025B00041000014141414140000412214080002F5
:1025C0000151090600324959513E007C1211127C1A
:1025D000007F49494936003E41414122007F414147
:1025E000221C007F49494941007F09090901003E39
:1025F0004149497A007F0808087F0000417F410077
:10260000002040413F01007F08142241007F4040EC
:102610004040007F020C027F007F0408107F003ED4
:102620004141413E007F09090906003E4151215EBA
:10263000007F091929460046494949310001017FB7
:102640000101003F4040403F001F2040201F003F4D
:102650004038403F006314081463000708700807FF
:1026600000615149454300007F41410000552A5512
:102670002A55000041417F0000040201020400408D
:1026800040404040000001020400002054545478AF
:10269000007F4844443800384444442000384444CF
:1026A000487F00385454541800087E09010200186D
:1026B000A4A4A47C007F080404780000447D4000AA
:1026C000004080847D00007F102844000000417F8E
:1026D0004000007C04180478007C0804047800386A
:1026E0004444443800FC242424180018242418FCF2
:1026F000007C0804040800485454542000043F445B
:102700004020003C4040207C001C2040201C003C1D
:102710004030403C004428102844001CA0A0A07C6D
:10272000004464544C4414141414141400000000A5
:10273000000000000000000000000000000000F8A1
:1027400000000000000000333000000000100C0604
:10275000100C0600000000000000000040C078409F
:10276000C0784000043F04043F040400007088FC6B
:1027700008300000001820FF211E0000F008F000C3
:10278000E018000000211C031E211E0000F0088834
:10279000700000001E2123241927211010160E009E
:1027A000000000000000000000000000000000E049
:1027B000180402000000000718204000000204185E
:1027C000E00000000040201807000000404080F0BA
:1027D000804040000202010F01020200000000F0F0
:1027E000000000000101011F0101010000000000C4
:1027F0000000000080B07000000000000000000039
:1028000000000000000101010101010100000000C1
:102810000000000000303000000000000000000058
:1028200080601804006018060100000000E0100835
:102830000810E000000F102020100F00001010F80A
:10284000000000000020203F202000000070080849
:1028500008887000003028242221300000300888C9
:10286000884830000018202020110E000000C020F1
:1028700010F8000000070424243F240000F8088812
:10288000880808000019212020110E0000E010889F
:1028900088180000000F112020110E0000380808D1
:1028A000C83808000000003F0000000000708808E1
:1028B00008887000001C222121221C0000E0100862
:1028C0000810E0000000312222110F00000000C0BB
:1028D000C000000000000030300000000000008058
:1028E0000000000000008060000000000000804048
:1028F0002010080000010204081020004040404061
:1029000040404000040404040404040000081020B3
:1029100040800000002010080402010000704808F8
:102920000808F0000000003036010000C030C82860
:10293000E810E0000718272423140B000000C0381B
:10294000E0000000203C23020227382008F8888895
:1029500088700000203F202020110E00C0300808A1
:1029600008083800071820202010080008F8080878
:102970000810E000203F202020100F0008F8888871
:10298000E8081000203F20202320180008F888883D
:10299000E8081000203F200003000000C0300808B5
:1029A0000838000007182020221E020008F808003E
:1029B0000008F808203F210101213F20000808F805
:1029C000080800000020203F202000000000080828
:1029D000F8080800C08080807F00000008F888C0E8
:1029E00028180800203F20012638200008F8080099
:1029F00000000000203F20202020300008F8F800D0
:102A0000F8F80800203F003F003F200008F830C0E1
:102A10000008F808203F200007183F00E0100808D1
:102A20000810E0000F10202020100F0008F8080800
:102A30000808F000203F210101010000E010080813
:102A40000810E0000F18242438504F0008F8888838
:102A500088887000203F2000030C30200070880818
:102A6000080838000038202121221C00180808F826
:102A7000080818000000203F2000000008F80800A7
:102A80000008F808001F202020201F000878880078
:102A900000C83808000007380E010000F80800F8E8
:102AA0000008F800033C0700073C03000818688092
:102AB0008068180820302C03032C30200838C80008
:102AC000C83808000000203F200000001008080857
:102AD000C83808002038262120201800000000FEF9
:102AE000020202000000007F40404000000C30C0A5
:102AF00000000000000000010638C00000020202D1
:102B0000FE000000004040407F0000000000040282
:102B100002020400000000000000000000000000AD
:102B2000000000008080808080808080000202049D
:102B30000000000000000000000000000000808095
:102B4000808000000019242222223F2008F8008003
:102B500080000000003F112020110E0000000080C6
:102B600080800000000E1120202011000000008055
:102B70008088F800000E112020103F200000808087
:102B800080800000001F222222221300008080F09B
:102B9000888888180020203F2020000000008080C6
:102BA00080808000006B94949493600008F800800B
:102BB00080800000203F210000203F200080989866
:102BC000000000000020203F2020000000000080C6
:102BD0009898000000C08080807F000008F8000006
:102BE00080808000203F24022D302000000808F85B
:102BF000000000000020203F202000008080808016
:102C000080808000203F20003F20003F80800080A7
:102C100080800000203F210000203F2000008080B5
:102C200080800000001F202020201F008080008066
:102C30008000000080FFA12020110E000000008015
:102C400080808000000E112020A0FF808080800006
:102C50008080800020203F21200001000000808033
:102C6000808080000033242424241900008080E028
:102C7000808000000000001F2020000080800000F5
:102C800000808000001F202020103F2080808000D6
:102C90000080808000010E300806010080800080E6
:102CA000008080800F300C030C300F00008080000B
:102CB000808080000020312E0E3120008080800036
:102CC0000080808080818E701806010000808080E6
:102CD000808080000021302C222130000000000084
:102CE000807C020200000000003F40400000000025
:102CF000FF00000000000000FF0000000002027C56
:102D0000800000000040403F00000000000601017C
:102D1000020204040000000000000000415450437F
:102D20003D302C000000000000000000000000000A
:102D30000000000000000000000000000000000093
:102D40004154504E3D000000000000000000000013
:102D50000000000000000000000000000000000073
:102D60000000000000000000000000000000000063
:102D7000000000004154504E3D00000000000000E3
:102D80000000000000000000000000000000000043
:102D90000000000000000000000000000000000033
:102DA0000000000000000000C82D00080000002006
:102DB00064000000181F00082C2E0008640000208A
:102DC000CC040000281F00080204060800000000D0
:102DD00001020304010203040607080900000000C1
:102DE0000000000000FFFF0000000000F500D80216
:102DF0006304BE05C20615FFFF17FFFF16FFFF188D
:102E0000FFFF191D2125291B1F23272B1A1E2226F0
:102E10002A1C2024282C0000FF00000000000000D5
:0C2E2000000000000000000000000000A6
:0400000508000131BD
:00000001FF
